:04000000C5EF3FF019
:107F8A000001D6EF3FF0720ED36E000E9B6E120008
:107F9A00010E936E000E956E000E836E0F0EC16E6B
:107FAA001200C8EC3FF0CDEC3FF081A0DFEF3FF0CC
:107FBA00E1EF3FF0FBEF3FF00B0E026E260E016E73
:107FCA005E0EE82EFED7012EFCD7022EFAD783804A
:107FDA000B0E026E260E016E5E0EE82EFED7012EE5
:107FEA00FCD7022EFAD78390DAEF3FF08390DAEFCC
:067FFA003FF000EF00F073
:020000040020DA
:08000000FFFFFFFFFFFFFFFF00
:020000040030CA
:0E000000FF071F1EFF8185FF0FC00FE00F409E
:00000001FF
