:04000000BBEF3FF023
:107F76000001CCEF3FF0000ED36E000E9B6E120098
:107F8600030E936E000E956E000E836E0F0EC16E7D
:107F96001200BEEC3FF0C3EC3FF081B0D5EF3FF0EE
:107FA600D7EF3FF0E4EF3FF081A2DCEF3FF0DEEFEA
:107FB6003FF0E4EF3FF08380839283848396D0EF93
:107FC6003FF081A0E9EF3FF0EBEF3FF0F8EF3FF035
:107FD60081B2F0EF3FF0F2EF3FF0F8EF3FF0839021
:107FE600838283948386D0EF3FF083908392839439
:0A7FF6008396D0EF3FF000EF00F09B
:020000040020DA
:08000000FFFFFFFFFFFFFFFF00
:020000040030CA
:0E000000FF02191EFF8181FF0FC00FE00F40AD
:00000001FF
