:04000000A1EF3FF03D
:107F3800000ED36E000E9B6E1200000EF86E00014C
:107F4800AFEF3FF0070E936E000E946E000E826E38
:107F58000F0EC16E12009CEC3FF0A6EC3FF081CFF3
:107F680001F0026AE0EF3FF082808282829482868A
:107F78008288828AB3EF3FF08280828282948286EE
:107F88008298829AB3EF3FF08280828282848296BE
:107F98008288829AB3EF3FF082908292828482969E
:107FA8008298828AB3EF3FF082908292829482868E
:107FB8008288828AB3EF3FF001C003F002C004F068
:107FC8000450000AD8B4EBEF3FF0D8EF3FF003506D
:107FD800000AD8B4B8EF3FF0010AD8B4C0EF3FF0B8
:107FE800020AD8B4C8EF3FF0040AD8B4D0EF3FF083
:087FF800D8EF3FF000EF00F0AC
:020000040020DA
:08000000FFFFFFFFFFFFFFFF00
:020000040030CA
:0E000000FF021F1EFF8181FF0FC00FE00F40A7
:00000001FF
