:0400000061EF3FF07D
:107E8000000ED36E000E9B6E1200000E836E000E6D
:107E90001A6E000E196E1200030E936E000E956E90
:107EA000000E836E0F0EC16E12000C00040006005F
:107EB000020003000100090008000C000600030096
:107EC0000900AA0EF66E7E0EF76E000EF86E00EE3A
:107ED00001F010EE18F00900F5CFEEFFE550E1508B
:107EE000FAE11A6A196A0001D2EF3FF091EF3FF010
:107EF000D8901934D96E1A34DA6E110ED926000EC4
:107F0000DA22DF50836E020E1C6E040E1B6EBA0E58
:107F1000E82EFED71B2EFCD71C2EFAD700D0194A0C
:107F20001A2A1ABE9DEF3FF01A5009E1040E195C9F
:107F3000D8A09DEF3FF09FEF3FF078EF3FF0000EAD
:107F40001A6E000E196E1200BFEF3FF0D890193470
:107F5000D96E1A34DA6E010ED926000EDA22DF50FD
:107F6000836E020E1C6E040E1B6EBA0EE82EFED738
:107F70001B2EFCD71C2EFAD700D0194A1A2A1ABE7B
:107F8000CBEF3FF01A5009E1080E195CD8A0CBEFF7
:107F90003FF0CDEF3FF0A6EF3FF0000E1A6E000E5F
:107FA000196E120040EC3FF04CEC3FF081B0DBEF7B
:107FB0003FF0DDEF3FF0E8EF3FF081A2E2EF3FF06E
:107FC000E4EF3FF0E8EF3FF076EC3FF0D6EF3FF024
:107FD00081A0EDEF3FF0EFEF3FF0FAEF3FF081B21D
:107FE000F4EF3FF0F6EF3FF0FAEF3FF0A4EC3FF094
:107FF000D6EF3FF045EC3FF0D6EF3FF000EF00F05A
:020000040020DA
:08000000FFFFFFFFFFFFFFFF00
:020000040030CA
:0E000000FF02191EFF8181FF0FC00FE00F40AD
:00000001FF
